{
  "_format": "hh-sol-artifact-1",
  "contractName": "NFT",
  "sourceName": "contracts/NFT.sol",
  "abi": [
    {
      "inputs": [],
      "stateMutability": "nonpayable",
      "type": "constructor"
    },
    {
      "inputs": [
        {
          "internalType": "address",
          "name": "sender",
          "type": "address"
        },
        {
          "internalType": "uint256",
          "name": "tokenId",
          "type": "uint256"
        },
        {
          "internalType": "address",
          "name": "owner",
          "type": "address"
        }
      ],
      "name": "ERC721IncorrectOwner",
      "type": "error"
    },
    {
      "inputs": [
        {
          "internalType": "address",
          "name": "operator",
          "type": "address"
        },
        {
          "internalType": "uint256",
          "name": "tokenId",
          "type": "uint256"
        }
      ],
      "name": "ERC721InsufficientApproval",
      "type": "error"
    },
    {
      "inputs": [
        {
          "internalType": "address",
          "name": "approver",
          "type": "address"
        }
      ],
      "name": "ERC721InvalidApprover",
      "type": "error"
    },
    {
      "inputs": [
        {
          "internalType": "address",
          "name": "operator",
          "type": "address"
        }
      ],
      "name": "ERC721InvalidOperator",
      "type": "error"
    },
    {
      "inputs": [
        {
          "internalType": "address",
          "name": "owner",
          "type": "address"
        }
      ],
      "name": "ERC721InvalidOwner",
      "type": "error"
    },
    {
      "inputs": [
        {
          "internalType": "address",
          "name": "receiver",
          "type": "address"
        }
      ],
      "name": "ERC721InvalidReceiver",
      "type": "error"
    },
    {
      "inputs": [
        {
          "internalType": "address",
          "name": "sender",
          "type": "address"
        }
      ],
      "name": "ERC721InvalidSender",
      "type": "error"
    },
    {
      "inputs": [
        {
          "internalType": "uint256",
          "name": "tokenId",
          "type": "uint256"
        }
      ],
      "name": "ERC721NonexistentToken",
      "type": "error"
    },
    {
      "anonymous": false,
      "inputs": [
        {
          "indexed": true,
          "internalType": "address",
          "name": "owner",
          "type": "address"
        },
        {
          "indexed": true,
          "internalType": "address",
          "name": "approved",
          "type": "address"
        },
        {
          "indexed": true,
          "internalType": "uint256",
          "name": "tokenId",
          "type": "uint256"
        }
      ],
      "name": "Approval",
      "type": "event"
    },
    {
      "anonymous": false,
      "inputs": [
        {
          "indexed": true,
          "internalType": "address",
          "name": "owner",
          "type": "address"
        },
        {
          "indexed": true,
          "internalType": "address",
          "name": "operator",
          "type": "address"
        },
        {
          "indexed": false,
          "internalType": "bool",
          "name": "approved",
          "type": "bool"
        }
      ],
      "name": "ApprovalForAll",
      "type": "event"
    },
    {
      "anonymous": false,
      "inputs": [
        {
          "indexed": false,
          "internalType": "uint256",
          "name": "_fromTokenId",
          "type": "uint256"
        },
        {
          "indexed": false,
          "internalType": "uint256",
          "name": "_toTokenId",
          "type": "uint256"
        }
      ],
      "name": "BatchMetadataUpdate",
      "type": "event"
    },
    {
      "anonymous": false,
      "inputs": [
        {
          "indexed": false,
          "internalType": "uint256",
          "name": "_tokenId",
          "type": "uint256"
        }
      ],
      "name": "MetadataUpdate",
      "type": "event"
    },
    {
      "anonymous": false,
      "inputs": [
        {
          "indexed": true,
          "internalType": "address",
          "name": "from",
          "type": "address"
        },
        {
          "indexed": true,
          "internalType": "address",
          "name": "to",
          "type": "address"
        },
        {
          "indexed": true,
          "internalType": "uint256",
          "name": "tokenId",
          "type": "uint256"
        }
      ],
      "name": "Transfer",
      "type": "event"
    },
    {
      "inputs": [
        {
          "internalType": "address",
          "name": "to",
          "type": "address"
        },
        {
          "internalType": "uint256",
          "name": "tokenId",
          "type": "uint256"
        }
      ],
      "name": "approve",
      "outputs": [],
      "stateMutability": "nonpayable",
      "type": "function"
    },
    {
      "inputs": [
        {
          "internalType": "address",
          "name": "owner",
          "type": "address"
        }
      ],
      "name": "balanceOf",
      "outputs": [
        {
          "internalType": "uint256",
          "name": "",
          "type": "uint256"
        }
      ],
      "stateMutability": "view",
      "type": "function"
    },
    {
      "inputs": [
        {
          "internalType": "string",
          "name": "_name",
          "type": "string"
        },
        {
          "internalType": "string",
          "name": "_description",
          "type": "string"
        },
        {
          "internalType": "string",
          "name": "_image",
          "type": "string"
        },
        {
          "internalType": "uint256",
          "name": "_price",
          "type": "uint256"
        }
      ],
      "name": "createToken",
      "outputs": [],
      "stateMutability": "nonpayable",
      "type": "function"
    },
    {
      "inputs": [
        {
          "internalType": "uint256",
          "name": "tokenId",
          "type": "uint256"
        }
      ],
      "name": "getApproved",
      "outputs": [
        {
          "internalType": "address",
          "name": "",
          "type": "address"
        }
      ],
      "stateMutability": "view",
      "type": "function"
    },
    {
      "inputs": [
        {
          "internalType": "uint256",
          "name": "_tokenId",
          "type": "uint256"
        }
      ],
      "name": "getToken",
      "outputs": [
        {
          "components": [
            {
              "internalType": "string",
              "name": "name",
              "type": "string"
            },
            {
              "internalType": "string",
              "name": "description",
              "type": "string"
            },
            {
              "internalType": "string",
              "name": "image",
              "type": "string"
            },
            {
              "internalType": "uint256",
              "name": "price",
              "type": "uint256"
            }
          ],
          "internalType": "struct NFT.Token",
          "name": "",
          "type": "tuple"
        }
      ],
      "stateMutability": "view",
      "type": "function"
    },
    {
      "inputs": [
        {
          "internalType": "address",
          "name": "owner",
          "type": "address"
        },
        {
          "internalType": "address",
          "name": "operator",
          "type": "address"
        }
      ],
      "name": "isApprovedForAll",
      "outputs": [
        {
          "internalType": "bool",
          "name": "",
          "type": "bool"
        }
      ],
      "stateMutability": "view",
      "type": "function"
    },
    {
      "inputs": [
        {
          "internalType": "string",
          "name": "_tokenURI",
          "type": "string"
        }
      ],
      "name": "mint",
      "outputs": [
        {
          "internalType": "uint256",
          "name": "",
          "type": "uint256"
        }
      ],
      "stateMutability": "nonpayable",
      "type": "function"
    },
    {
      "inputs": [],
      "name": "name",
      "outputs": [
        {
          "internalType": "string",
          "name": "",
          "type": "string"
        }
      ],
      "stateMutability": "view",
      "type": "function"
    },
    {
      "inputs": [
        {
          "internalType": "uint256",
          "name": "tokenId",
          "type": "uint256"
        }
      ],
      "name": "ownerOf",
      "outputs": [
        {
          "internalType": "address",
          "name": "",
          "type": "address"
        }
      ],
      "stateMutability": "view",
      "type": "function"
    },
    {
      "inputs": [
        {
          "internalType": "address",
          "name": "from",
          "type": "address"
        },
        {
          "internalType": "address",
          "name": "to",
          "type": "address"
        },
        {
          "internalType": "uint256",
          "name": "tokenId",
          "type": "uint256"
        }
      ],
      "name": "safeTransferFrom",
      "outputs": [],
      "stateMutability": "nonpayable",
      "type": "function"
    },
    {
      "inputs": [
        {
          "internalType": "address",
          "name": "from",
          "type": "address"
        },
        {
          "internalType": "address",
          "name": "to",
          "type": "address"
        },
        {
          "internalType": "uint256",
          "name": "tokenId",
          "type": "uint256"
        },
        {
          "internalType": "bytes",
          "name": "data",
          "type": "bytes"
        }
      ],
      "name": "safeTransferFrom",
      "outputs": [],
      "stateMutability": "nonpayable",
      "type": "function"
    },
    {
      "inputs": [
        {
          "internalType": "address",
          "name": "operator",
          "type": "address"
        },
        {
          "internalType": "bool",
          "name": "approved",
          "type": "bool"
        }
      ],
      "name": "setApprovalForAll",
      "outputs": [],
      "stateMutability": "nonpayable",
      "type": "function"
    },
    {
      "inputs": [
        {
          "internalType": "bytes4",
          "name": "interfaceId",
          "type": "bytes4"
        }
      ],
      "name": "supportsInterface",
      "outputs": [
        {
          "internalType": "bool",
          "name": "",
          "type": "bool"
        }
      ],
      "stateMutability": "view",
      "type": "function"
    },
    {
      "inputs": [],
      "name": "symbol",
      "outputs": [
        {
          "internalType": "string",
          "name": "",
          "type": "string"
        }
      ],
      "stateMutability": "view",
      "type": "function"
    },
    {
      "inputs": [],
      "name": "tokenCount",
      "outputs": [
        {
          "internalType": "uint256",
          "name": "",
          "type": "uint256"
        }
      ],
      "stateMutability": "view",
      "type": "function"
    },
    {
      "inputs": [
        {
          "internalType": "uint256",
          "name": "tokenId",
          "type": "uint256"
        }
      ],
      "name": "tokenURI",
      "outputs": [
        {
          "internalType": "string",
          "name": "",
          "type": "string"
        }
      ],
      "stateMutability": "view",
      "type": "function"
    },
    {
      "inputs": [
        {
          "internalType": "uint256",
          "name": "",
          "type": "uint256"
        }
      ],
      "name": "tokens",
      "outputs": [
        {
          "internalType": "string",
          "name": "name",
          "type": "string"
        },
        {
          "internalType": "string",
          "name": "description",
          "type": "string"
        },
        {
          "internalType": "string",
          "name": "image",
          "type": "string"
        },
        {
          "internalType": "uint256",
          "name": "price",
          "type": "uint256"
        }
      ],
      "stateMutability": "view",
      "type": "function"
    },
    {
      "inputs": [
        {
          "internalType": "address",
          "name": "from",
          "type": "address"
        },
        {
          "internalType": "address",
          "name": "to",
          "type": "address"
        },
        {
          "internalType": "uint256",
          "name": "tokenId",
          "type": "uint256"
        }
      ],
      "name": "transferFrom",
      "outputs": [],
      "stateMutability": "nonpayable",
      "type": "function"
    }
  ],
  "bytecode": "0x60806040523480156200001157600080fd5b506040518060400160405280600e81526020017f4170704176656e676572204e46540000000000000000000000000000000000008152506040518060400160405280600a81526020017f4170704176656e6765720000000000000000000000000000000000000000000081525081600090816200008f919062000324565b508060019081620000a1919062000324565b5050506200040b565b600081519050919050565b7f4e487b7100000000000000000000000000000000000000000000000000000000600052604160045260246000fd5b7f4e487b7100000000000000000000000000000000000000000000000000000000600052602260045260246000fd5b600060028204905060018216806200012c57607f821691505b602082108103620001425762000141620000e4565b5b50919050565b60008190508160005260206000209050919050565b60006020601f8301049050919050565b600082821b905092915050565b600060088302620001ac7fffffffffffffffffffffffffffffffffffffffffffffffffffffffffffffffff826200016d565b620001b886836200016d565b95508019841693508086168417925050509392505050565b6000819050919050565b6000819050919050565b600062000205620001ff620001f984620001d0565b620001da565b620001d0565b9050919050565b6000819050919050565b6200022183620001e4565b6200023962000230826200020c565b8484546200017a565b825550505050565b600090565b6200025062000241565b6200025d81848462000216565b505050565b5b8181101562000285576200027960008262000246565b60018101905062000263565b5050565b601f821115620002d4576200029e8162000148565b620002a9846200015d565b81016020851015620002b9578190505b620002d1620002c8856200015d565b83018262000262565b50505b505050565b600082821c905092915050565b6000620002f960001984600802620002d9565b1980831691505092915050565b6000620003148383620002e6565b9150826002028217905092915050565b6200032f82620000aa565b67ffffffffffffffff8111156200034b576200034a620000b5565b5b62000357825462000113565b6200036482828562000289565b600060209050601f8311600181146200039c576000841562000387578287015190505b62000393858262000306565b86555062000403565b601f198416620003ac8662000148565b60005b82811015620003d657848901518255600182019150602085019450602081019050620003af565b86831015620003f65784890151620003f2601f891682620002e6565b8355505b6001600288020188555050505b505050505050565b612b1d806200041b6000396000f3fe608060405234801561001057600080fd5b50600436106101165760003560e01c806395d89b41116100a2578063c87b56dd11610071578063c87b56dd146102f4578063d85d3d2714610324578063e4b50cb814610354578063e985e9c514610384578063efbe8fd1146103b457610116565b806395d89b41146102805780639f181b5e1461029e578063a22cb465146102bc578063b88d4fde146102d857610116565b806323b872dd116100e957806323b872dd146101b557806342842e0e146101d15780634f64b2be146101ed5780636352211e1461022057806370a082311461025057610116565b806301ffc9a71461011b57806306fdde031461014b578063081812fc14610169578063095ea7b314610199575b600080fd5b61013560048036038101906101309190611d87565b6103d0565b6040516101429190611dcf565b60405180910390f35b610153610431565b6040516101609190611e7a565b60405180910390f35b610183600480360381019061017e9190611ed2565b6104c3565b6040516101909190611f40565b60405180910390f35b6101b360048036038101906101ae9190611f87565b6104df565b005b6101cf60048036038101906101ca9190611fc7565b6104f5565b005b6101eb60048036038101906101e69190611fc7565b6105f7565b005b61020760048036038101906102029190611ed2565b610617565b6040516102179493929190612029565b60405180910390f35b61023a60048036038101906102359190611ed2565b6107df565b6040516102479190611f40565b60405180910390f35b61026a60048036038101906102659190612083565b6107f1565b60405161027791906120b0565b60405180910390f35b6102886108ab565b6040516102959190611e7a565b60405180910390f35b6102a661093d565b6040516102b391906120b0565b60405180910390f35b6102d660048036038101906102d191906120f7565b610943565b005b6102f260048036038101906102ed919061226c565b610959565b005b61030e60048036038101906103099190611ed2565b610976565b60405161031b9190611e7a565b60405180910390f35b61033e60048036038101906103399190612390565b610a89565b60405161034b91906120b0565b60405180910390f35b61036e60048036038101906103699190611ed2565b610ac5565b60405161037b91906124a3565b60405180910390f35b61039e600480360381019061039991906124c5565b610cb2565b6040516103ab9190611dcf565b60405180910390f35b6103ce60048036038101906103c99190612505565b610d46565b005b6000634906490660e01b7bffffffffffffffffffffffffffffffffffffffffffffffffffffffff1916827bffffffffffffffffffffffffffffffffffffffffffffffffffffffff1916148061042a575061042982610dd1565b5b9050919050565b606060008054610440906125ef565b80601f016020809104026020016040519081016040528092919081815260200182805461046c906125ef565b80156104b95780601f1061048e576101008083540402835291602001916104b9565b820191906000526020600020905b81548152906001019060200180831161049c57829003601f168201915b5050505050905090565b60006104ce82610eb3565b506104d882610f3b565b9050919050565b6104f182826104ec610f78565b610f80565b5050565b600073ffffffffffffffffffffffffffffffffffffffff168273ffffffffffffffffffffffffffffffffffffffff16036105675760006040517f64a0ae9200000000000000000000000000000000000000000000000000000000815260040161055e9190611f40565b60405180910390fd5b600061057b8383610576610f78565b610f92565b90508373ffffffffffffffffffffffffffffffffffffffff168173ffffffffffffffffffffffffffffffffffffffff16146105f1578382826040517f64283d7b0000000000000000000000000000000000000000000000000000000081526004016105e893929190612620565b60405180910390fd5b50505050565b61061283838360405180602001604052806000815250610959565b505050565b600860205280600052604060002060009150905080600001805461063a906125ef565b80601f0160208091040260200160405190810160405280929190818152602001828054610666906125ef565b80156106b35780601f10610688576101008083540402835291602001916106b3565b820191906000526020600020905b81548152906001019060200180831161069657829003601f168201915b5050505050908060010180546106c8906125ef565b80601f01602080910402602001604051908101604052809291908181526020018280546106f4906125ef565b80156107415780601f1061071657610100808354040283529160200191610741565b820191906000526020600020905b81548152906001019060200180831161072457829003601f168201915b505050505090806002018054610756906125ef565b80601f0160208091040260200160405190810160405280929190818152602001828054610782906125ef565b80156107cf5780601f106107a4576101008083540402835291602001916107cf565b820191906000526020600020905b8154815290600101906020018083116107b257829003601f168201915b5050505050908060030154905084565b60006107ea82610eb3565b9050919050565b60008073ffffffffffffffffffffffffffffffffffffffff168273ffffffffffffffffffffffffffffffffffffffff16036108645760006040517f89c62b6400000000000000000000000000000000000000000000000000000000815260040161085b9190611f40565b60405180910390fd5b600360008373ffffffffffffffffffffffffffffffffffffffff1673ffffffffffffffffffffffffffffffffffffffff168152602001908152602001600020549050919050565b6060600180546108ba906125ef565b80601f01602080910402602001604051908101604052809291908181526020018280546108e6906125ef565b80156109335780601f1061090857610100808354040283529160200191610933565b820191906000526020600020905b81548152906001019060200180831161091657829003601f168201915b5050505050905090565b60075481565b61095561094e610f78565b83836111ac565b5050565b6109648484846104f5565b6109708484848461131b565b50505050565b606061098182610eb3565b5060006006600084815260200190815260200160002080546109a2906125ef565b80601f01602080910402602001604051908101604052809291908181526020018280546109ce906125ef565b8015610a1b5780601f106109f057610100808354040283529160200191610a1b565b820191906000526020600020905b8154815290600101906020018083116109fe57829003601f168201915b505050505090506000610a2c6114d2565b90506000815103610a41578192505050610a84565b600082511115610a76578082604051602001610a5e929190612693565b60405160208183030381529060405292505050610a84565b610a7f846114e9565b925050505b919050565b600060076000815480929190610a9e906126e6565b9190505550610aaf33600754611552565b610abb60075483611570565b6007549050919050565b610acd611cf3565b60086000838152602001908152602001600020604051806080016040529081600082018054610afb906125ef565b80601f0160208091040260200160405190810160405280929190818152602001828054610b27906125ef565b8015610b745780601f10610b4957610100808354040283529160200191610b74565b820191906000526020600020905b815481529060010190602001808311610b5757829003601f168201915b50505050508152602001600182018054610b8d906125ef565b80601f0160208091040260200160405190810160405280929190818152602001828054610bb9906125ef565b8015610c065780601f10610bdb57610100808354040283529160200191610c06565b820191906000526020600020905b815481529060010190602001808311610be957829003601f168201915b50505050508152602001600282018054610c1f906125ef565b80601f0160208091040260200160405190810160405280929190818152602001828054610c4b906125ef565b8015610c985780601f10610c6d57610100808354040283529160200191610c98565b820191906000526020600020905b815481529060010190602001808311610c7b57829003601f168201915b505050505081526020016003820154815250509050919050565b6000600560008473ffffffffffffffffffffffffffffffffffffffff1673ffffffffffffffffffffffffffffffffffffffff16815260200190815260200160002060008373ffffffffffffffffffffffffffffffffffffffff1673ffffffffffffffffffffffffffffffffffffffff16815260200190815260200160002060009054906101000a900460ff16905092915050565b6040518060800160405280858152602001848152602001838152602001828152506008600060075481526020019081526020016000206000820151816000019081610d9191906128da565b506020820151816001019081610da791906128da565b506040820151816002019081610dbd91906128da565b506060820151816003015590505050505050565b60007f80ac58cd000000000000000000000000000000000000000000000000000000007bffffffffffffffffffffffffffffffffffffffffffffffffffffffff1916827bffffffffffffffffffffffffffffffffffffffffffffffffffffffff19161480610e9c57507f5b5e139f000000000000000000000000000000000000000000000000000000007bffffffffffffffffffffffffffffffffffffffffffffffffffffffff1916827bffffffffffffffffffffffffffffffffffffffffffffffffffffffff1916145b80610eac5750610eab826115cc565b5b9050919050565b600080610ebf83611636565b9050600073ffffffffffffffffffffffffffffffffffffffff168173ffffffffffffffffffffffffffffffffffffffff1603610f3257826040517f7e273289000000000000000000000000000000000000000000000000000000008152600401610f2991906120b0565b60405180910390fd5b80915050919050565b60006004600083815260200190815260200160002060009054906101000a900473ffffffffffffffffffffffffffffffffffffffff169050919050565b600033905090565b610f8d8383836001611673565b505050565b600080610f9e84611636565b9050600073ffffffffffffffffffffffffffffffffffffffff168373ffffffffffffffffffffffffffffffffffffffff1614610fe057610fdf818486611838565b5b600073ffffffffffffffffffffffffffffffffffffffff168173ffffffffffffffffffffffffffffffffffffffff161461107157611022600085600080611673565b6001600360008373ffffffffffffffffffffffffffffffffffffffff1673ffffffffffffffffffffffffffffffffffffffff168152602001908152602001600020600082825403925050819055505b600073ffffffffffffffffffffffffffffffffffffffff168573ffffffffffffffffffffffffffffffffffffffff16146110f4576001600360008773ffffffffffffffffffffffffffffffffffffffff1673ffffffffffffffffffffffffffffffffffffffff168152602001908152602001600020600082825401925050819055505b846002600086815260200190815260200160002060006101000a81548173ffffffffffffffffffffffffffffffffffffffff021916908373ffffffffffffffffffffffffffffffffffffffff160217905550838573ffffffffffffffffffffffffffffffffffffffff168273ffffffffffffffffffffffffffffffffffffffff167fddf252ad1be2c89b69c2b068fc378daa952ba7f163c4a11628f55a4df523b3ef60405160405180910390a4809150509392505050565b600073ffffffffffffffffffffffffffffffffffffffff168273ffffffffffffffffffffffffffffffffffffffff160361121d57816040517f5b08ba180000000000000000000000000000000000000000000000000000000081526004016112149190611f40565b60405180910390fd5b80600560008573ffffffffffffffffffffffffffffffffffffffff1673ffffffffffffffffffffffffffffffffffffffff16815260200190815260200160002060008473ffffffffffffffffffffffffffffffffffffffff1673ffffffffffffffffffffffffffffffffffffffff16815260200190815260200160002060006101000a81548160ff0219169083151502179055508173ffffffffffffffffffffffffffffffffffffffff168373ffffffffffffffffffffffffffffffffffffffff167f17307eab39ab6107e8899845ad3d59bd9653f200f220920489ca2b5937696c318360405161130e9190611dcf565b60405180910390a3505050565b60008373ffffffffffffffffffffffffffffffffffffffff163b11156114cc578273ffffffffffffffffffffffffffffffffffffffff1663150b7a0261135f610f78565b8685856040518563ffffffff1660e01b81526004016113819493929190612a01565b6020604051808303816000875af19250505080156113bd57506040513d601f19601f820116820180604052508101906113ba9190612a62565b60015b611441573d80600081146113ed576040519150601f19603f3d011682016040523d82523d6000602084013e6113f2565b606091505b50600081510361143957836040517f64a0ae920000000000000000000000000000000000000000000000000000000081526004016114309190611f40565b60405180910390fd5b805181602001fd5b63150b7a0260e01b7bffffffffffffffffffffffffffffffffffffffffffffffffffffffff1916817bffffffffffffffffffffffffffffffffffffffffffffffffffffffff1916146114ca57836040517f64a0ae920000000000000000000000000000000000000000000000000000000081526004016114c19190611f40565b60405180910390fd5b505b50505050565b606060405180602001604052806000815250905090565b60606114f482610eb3565b5060006114ff6114d2565b9050600081511161151f576040518060200160405280600081525061154a565b80611529846118fc565b60405160200161153a929190612693565b6040516020818303038152906040525b915050919050565b61156c8282604051806020016040528060008152506119ca565b5050565b8060066000848152602001908152602001600020908161159091906128da565b507ff8e1a15aba9398e019f0b49df1a4fde98ee17ae345cb5f6b5e2c27f5033e8ce7826040516115c091906120b0565b60405180910390a15050565b60007f01ffc9a7000000000000000000000000000000000000000000000000000000007bffffffffffffffffffffffffffffffffffffffffffffffffffffffff1916827bffffffffffffffffffffffffffffffffffffffffffffffffffffffff1916149050919050565b60006002600083815260200190815260200160002060009054906101000a900473ffffffffffffffffffffffffffffffffffffffff169050919050565b80806116ac5750600073ffffffffffffffffffffffffffffffffffffffff168273ffffffffffffffffffffffffffffffffffffffff1614155b156117e05760006116bc84610eb3565b9050600073ffffffffffffffffffffffffffffffffffffffff168373ffffffffffffffffffffffffffffffffffffffff161415801561172757508273ffffffffffffffffffffffffffffffffffffffff168173ffffffffffffffffffffffffffffffffffffffff1614155b801561173a57506117388184610cb2565b155b1561177c57826040517fa9fbf51f0000000000000000000000000000000000000000000000000000000081526004016117739190611f40565b60405180910390fd5b81156117de57838573ffffffffffffffffffffffffffffffffffffffff168273ffffffffffffffffffffffffffffffffffffffff167f8c5be1e5ebec7d5bd14f71427d1e84f3dd0314c0f7b2291e5b200ac8c7c3b92560405160405180910390a45b505b836004600085815260200190815260200160002060006101000a81548173ffffffffffffffffffffffffffffffffffffffff021916908373ffffffffffffffffffffffffffffffffffffffff16021790555050505050565b6118438383836119e6565b6118f757600073ffffffffffffffffffffffffffffffffffffffff168373ffffffffffffffffffffffffffffffffffffffff16036118b857806040517f7e2732890000000000000000000000000000000000000000000000000000000081526004016118af91906120b0565b60405180910390fd5b81816040517f177e802f0000000000000000000000000000000000000000000000000000000081526004016118ee929190612a8f565b60405180910390fd5b505050565b60606000600161190b84611aa7565b01905060008167ffffffffffffffff81111561192a57611929612141565b5b6040519080825280601f01601f19166020018201604052801561195c5781602001600182028036833780820191505090505b509050600082602001820190505b6001156119bf578080600190039150507f3031323334353637383961626364656600000000000000000000000000000000600a86061a8153600a85816119b3576119b2612ab8565b5b0494506000850361196a575b819350505050919050565b6119d48383611bfa565b6119e1600084848461131b565b505050565b60008073ffffffffffffffffffffffffffffffffffffffff168373ffffffffffffffffffffffffffffffffffffffff1614158015611a9e57508273ffffffffffffffffffffffffffffffffffffffff168473ffffffffffffffffffffffffffffffffffffffff161480611a5f5750611a5e8484610cb2565b5b80611a9d57508273ffffffffffffffffffffffffffffffffffffffff16611a8583610f3b565b73ffffffffffffffffffffffffffffffffffffffff16145b5b90509392505050565b600080600090507a184f03e93ff9f4daa797ed6e38ed64bf6a1f0100000000000000008310611b05577a184f03e93ff9f4daa797ed6e38ed64bf6a1f0100000000000000008381611afb57611afa612ab8565b5b0492506040810190505b6d04ee2d6d415b85acef81000000008310611b42576d04ee2d6d415b85acef81000000008381611b3857611b37612ab8565b5b0492506020810190505b662386f26fc100008310611b7157662386f26fc100008381611b6757611b66612ab8565b5b0492506010810190505b6305f5e1008310611b9a576305f5e1008381611b9057611b8f612ab8565b5b0492506008810190505b6127108310611bbf576127108381611bb557611bb4612ab8565b5b0492506004810190505b60648310611be25760648381611bd857611bd7612ab8565b5b0492506002810190505b600a8310611bf1576001810190505b80915050919050565b600073ffffffffffffffffffffffffffffffffffffffff168273ffffffffffffffffffffffffffffffffffffffff1603611c6c5760006040517f64a0ae92000000000000000000000000000000000000000000000000000000008152600401611c639190611f40565b60405180910390fd5b6000611c7a83836000610f92565b9050600073ffffffffffffffffffffffffffffffffffffffff168173ffffffffffffffffffffffffffffffffffffffff1614611cee5760006040517f73c6ac6e000000000000000000000000000000000000000000000000000000008152600401611ce59190611f40565b60405180910390fd5b505050565b6040518060800160405280606081526020016060815260200160608152602001600081525090565b6000604051905090565b600080fd5b600080fd5b60007fffffffff0000000000000000000000000000000000000000000000000000000082169050919050565b611d6481611d2f565b8114611d6f57600080fd5b50565b600081359050611d8181611d5b565b92915050565b600060208284031215611d9d57611d9c611d25565b5b6000611dab84828501611d72565b91505092915050565b60008115159050919050565b611dc981611db4565b82525050565b6000602082019050611de46000830184611dc0565b92915050565b600081519050919050565b600082825260208201905092915050565b60005b83811015611e24578082015181840152602081019050611e09565b60008484015250505050565b6000601f19601f8301169050919050565b6000611e4c82611dea565b611e568185611df5565b9350611e66818560208601611e06565b611e6f81611e30565b840191505092915050565b60006020820190508181036000830152611e948184611e41565b905092915050565b6000819050919050565b611eaf81611e9c565b8114611eba57600080fd5b50565b600081359050611ecc81611ea6565b92915050565b600060208284031215611ee857611ee7611d25565b5b6000611ef684828501611ebd565b91505092915050565b600073ffffffffffffffffffffffffffffffffffffffff82169050919050565b6000611f2a82611eff565b9050919050565b611f3a81611f1f565b82525050565b6000602082019050611f556000830184611f31565b92915050565b611f6481611f1f565b8114611f6f57600080fd5b50565b600081359050611f8181611f5b565b92915050565b60008060408385031215611f9e57611f9d611d25565b5b6000611fac85828601611f72565b9250506020611fbd85828601611ebd565b9150509250929050565b600080600060608486031215611fe057611fdf611d25565b5b6000611fee86828701611f72565b9350506020611fff86828701611f72565b925050604061201086828701611ebd565b9150509250925092565b61202381611e9c565b82525050565b600060808201905081810360008301526120438187611e41565b905081810360208301526120578186611e41565b9050818103604083015261206b8185611e41565b905061207a606083018461201a565b95945050505050565b60006020828403121561209957612098611d25565b5b60006120a784828501611f72565b91505092915050565b60006020820190506120c5600083018461201a565b92915050565b6120d481611db4565b81146120df57600080fd5b50565b6000813590506120f1816120cb565b92915050565b6000806040838503121561210e5761210d611d25565b5b600061211c85828601611f72565b925050602061212d858286016120e2565b9150509250929050565b600080fd5b600080fd5b7f4e487b7100000000000000000000000000000000000000000000000000000000600052604160045260246000fd5b61217982611e30565b810181811067ffffffffffffffff8211171561219857612197612141565b5b80604052505050565b60006121ab611d1b565b90506121b78282612170565b919050565b600067ffffffffffffffff8211156121d7576121d6612141565b5b6121e082611e30565b9050602081019050919050565b82818337600083830152505050565b600061220f61220a846121bc565b6121a1565b90508281526020810184848401111561222b5761222a61213c565b5b6122368482856121ed565b509392505050565b600082601f83011261225357612252612137565b5b81356122638482602086016121fc565b91505092915050565b6000806000806080858703121561228657612285611d25565b5b600061229487828801611f72565b94505060206122a587828801611f72565b93505060406122b687828801611ebd565b925050606085013567ffffffffffffffff8111156122d7576122d6611d2a565b5b6122e38782880161223e565b91505092959194509250565b600067ffffffffffffffff82111561230a57612309612141565b5b61231382611e30565b9050602081019050919050565b600061233361232e846122ef565b6121a1565b90508281526020810184848401111561234f5761234e61213c565b5b61235a8482856121ed565b509392505050565b600082601f83011261237757612376612137565b5b8135612387848260208601612320565b91505092915050565b6000602082840312156123a6576123a5611d25565b5b600082013567ffffffffffffffff8111156123c4576123c3611d2a565b5b6123d084828501612362565b91505092915050565b600082825260208201905092915050565b60006123f582611dea565b6123ff81856123d9565b935061240f818560208601611e06565b61241881611e30565b840191505092915050565b61242c81611e9c565b82525050565b6000608083016000830151848203600086015261244f82826123ea565b9150506020830151848203602086015261246982826123ea565b9150506040830151848203604086015261248382826123ea565b91505060608301516124986060860182612423565b508091505092915050565b600060208201905081810360008301526124bd8184612432565b905092915050565b600080604083850312156124dc576124db611d25565b5b60006124ea85828601611f72565b92505060206124fb85828601611f72565b9150509250929050565b6000806000806080858703121561251f5761251e611d25565b5b600085013567ffffffffffffffff81111561253d5761253c611d2a565b5b61254987828801612362565b945050602085013567ffffffffffffffff81111561256a57612569611d2a565b5b61257687828801612362565b935050604085013567ffffffffffffffff81111561259757612596611d2a565b5b6125a387828801612362565b92505060606125b487828801611ebd565b91505092959194509250565b7f4e487b7100000000000000000000000000000000000000000000000000000000600052602260045260246000fd5b6000600282049050600182168061260757607f821691505b60208210810361261a576126196125c0565b5b50919050565b60006060820190506126356000830186611f31565b612642602083018561201a565b61264f6040830184611f31565b949350505050565b600081905092915050565b600061266d82611dea565b6126778185612657565b9350612687818560208601611e06565b80840191505092915050565b600061269f8285612662565b91506126ab8284612662565b91508190509392505050565b7f4e487b7100000000000000000000000000000000000000000000000000000000600052601160045260246000fd5b60006126f182611e9c565b91507fffffffffffffffffffffffffffffffffffffffffffffffffffffffffffffffff8203612723576127226126b7565b5b600182019050919050565b60008190508160005260206000209050919050565b60006020601f8301049050919050565b600082821b905092915050565b6000600883026127907fffffffffffffffffffffffffffffffffffffffffffffffffffffffffffffffff82612753565b61279a8683612753565b95508019841693508086168417925050509392505050565b6000819050919050565b60006127d76127d26127cd84611e9c565b6127b2565b611e9c565b9050919050565b6000819050919050565b6127f1836127bc565b6128056127fd826127de565b848454612760565b825550505050565b600090565b61281a61280d565b6128258184846127e8565b505050565b5b818110156128495761283e600082612812565b60018101905061282b565b5050565b601f82111561288e5761285f8161272e565b61286884612743565b81016020851015612877578190505b61288b61288385612743565b83018261282a565b50505b505050565b600082821c905092915050565b60006128b160001984600802612893565b1980831691505092915050565b60006128ca83836128a0565b9150826002028217905092915050565b6128e382611dea565b67ffffffffffffffff8111156128fc576128fb612141565b5b61290682546125ef565b61291182828561284d565b600060209050601f8311600181146129445760008415612932578287015190505b61293c85826128be565b8655506129a4565b601f1984166129528661272e565b60005b8281101561297a57848901518255600182019150602085019450602081019050612955565b868310156129975784890151612993601f8916826128a0565b8355505b6001600288020188555050505b505050505050565b600081519050919050565b600082825260208201905092915050565b60006129d3826129ac565b6129dd81856129b7565b93506129ed818560208601611e06565b6129f681611e30565b840191505092915050565b6000608082019050612a166000830187611f31565b612a236020830186611f31565b612a30604083018561201a565b8181036060830152612a4281846129c8565b905095945050505050565b600081519050612a5c81611d5b565b92915050565b600060208284031215612a7857612a77611d25565b5b6000612a8684828501612a4d565b91505092915050565b6000604082019050612aa46000830185611f31565b612ab1602083018461201a565b9392505050565b7f4e487b7100000000000000000000000000000000000000000000000000000000600052601260045260246000fdfea2646970667358221220a83565f83e9bb5cf1730e18eb762903b657182c4bec3834940cb63ffd2cd32e564736f6c63430008140033",
  "linkReferences": {},
  "deployedLinkReferences": {}
}